8=FIX.4.4|9=112|35=A|34=1|49=02f8e7cb-6a9a-4dff-8ab8-e246b8d18002|52=20170619-08:44:45.160|56=BTCC-FIX-SERVER|98=0|108=30|141=Y|10=108|8=FIX.4.4|9=154|35=V|34=2|49=02f8e7cb-6a9a-4dff-8ab8-e246b8d18002|52=20170619-08:44:47.243|56=BTCC-FIX-SERVER|262=123|263=1|264=2|146=1|55=BTCCNY|267=3|269=0|269=1|269=2|10=127|8=FIX.4.4|9=94|35=0|34=3|49=02f8e7cb-6a9a-4dff-8ab8-e246b8d18002|52=20170619-08:45:17.774|56=BTCC-FIX-SERVER|10=251|8=FIX.4.4|9=94|35=0|34=4|49=02f8e7cb-6a9a-4dff-8ab8-e246b8d18002|52=20170619-08:45:47.777|56=BTCC-FIX-SERVER|10=002|8=FIX.4.4|9=94|35=0|34=5|49=02f8e7cb-6a9a-4dff-8ab8-e246b8d18002|52=20170619-08:46:18.779|56=BTCC-FIX-SERVER|10=004|8=FIX.4.4|9=94|35=0|34=6|49=02f8e7cb-6a9a-4dff-8ab8-e246b8d18002|52=20170619-08:46:49.774|56=BTCC-FIX-SERVER|10=004|