8=FIX.4.4|9=112|35=A|34=1|49=02f8e7cb-6a9a-4dff-8ab8-e246b8d18002|52=20170625-05:09:21.914|56=BTCC-FIX-SERVER|98=0|108=30|141=Y|10=104|8=FIX.4.4|9=154|35=V|34=2|49=02f8e7cb-6a9a-4dff-8ab8-e246b8d18002|52=20170625-05:09:22.096|56=BTCC-FIX-SERVER|262=123|263=1|264=5|146=1|55=LTCCNY|267=3|269=0|269=1|269=2|10=134|