8=FIX.4.4|9=112|35=A|34=1|49=02f8e7cb-6a9a-4dff-8ab8-e246b8d18002|52=20170615-16:52:17.405|56=BTCC-FIX-SERVER|98=0|108=30|141=Y|10=103|8=FIX.4.4|9=154|35=V|34=2|49=02f8e7cb-6a9a-4dff-8ab8-e246b8d18002|52=20170615-16:52:17.581|56=BTCC-FIX-SERVER|262=123|263=1|264=2|146=1|55=BTCCNY|267=3|269=0|269=1|269=2|10=123|8=FIX.4.4|9=94|35=0|34=3|49=02f8e7cb-6a9a-4dff-8ab8-e246b8d18002|52=20170615-16:52:48.403|56=BTCC-FIX-SERVER|10=237|