8=FIX.4.4|9=112|35=A|34=1|49=02f8e7cb-6a9a-4dff-8ab8-e246b8d1800c|52=20170615-05:35:23.045|56=BTCC-FIX-SERVER|98=0|108=30|141=Y|10=148|