8=FIX.4.4|9=112|35=A|34=1|49=02f8e7cb-6a9a-4dff-8ab8-e246b8d1800c|52=20170615-05:34:22.053|56=BTCC-FIX-SERVER|98=0|108=30|141=Y|10=145|
8=FIX.4.4|9=112|35=A|34=1|49=BTCC-FIX-SERVER|52=20170615-05:34:22.482|56=02f8e7cb-6a9a-4dff-8ab8-e246b8d1800c|98=0|108=30|141=Y|10=151|
8=FIX.4.4|9=112|35=A|34=1|49=02f8e7cb-6a9a-4dff-8ab8-e246b8d1800c|52=20170615-05:34:34.046|56=BTCC-FIX-SERVER|98=0|108=30|141=Y|10=150|
8=FIX.4.4|9=112|35=A|34=1|49=BTCC-FIX-SERVER|52=20170615-05:34:34.557|56=02f8e7cb-6a9a-4dff-8ab8-e246b8d1800c|98=0|108=30|141=Y|10=157|
8=FIX.4.4|9=112|35=A|34=1|49=02f8e7cb-6a9a-4dff-8ab8-e246b8d1800c|52=20170615-05:34:46.156|56=BTCC-FIX-SERVER|98=0|108=30|141=Y|10=155|
8=FIX.4.4|9=112|35=A|34=1|49=BTCC-FIX-SERVER|52=20170615-05:34:47.173|56=02f8e7cb-6a9a-4dff-8ab8-e246b8d1800c|98=0|108=30|141=Y|10=155|
8=FIX.4.4|9=112|35=A|34=1|49=02f8e7cb-6a9a-4dff-8ab8-e246b8d1800c|52=20170615-05:34:59.045|56=BTCC-FIX-SERVER|98=0|108=30|141=Y|10=156|
8=FIX.4.4|9=112|35=A|34=1|49=BTCC-FIX-SERVER|52=20170615-05:34:59.131|56=02f8e7cb-6a9a-4dff-8ab8-e246b8d1800c|98=0|108=30|141=Y|10=152|
8=FIX.4.4|9=112|35=A|34=1|49=02f8e7cb-6a9a-4dff-8ab8-e246b8d1800c|52=20170615-05:35:11.046|56=BTCC-FIX-SERVER|98=0|108=30|141=Y|10=146|
8=FIX.4.4|9=112|35=A|34=1|49=BTCC-FIX-SERVER|52=20170615-05:35:11.650|56=02f8e7cb-6a9a-4dff-8ab8-e246b8d1800c|98=0|108=30|141=Y|10=147|
8=FIX.4.4|9=112|35=A|34=1|49=02f8e7cb-6a9a-4dff-8ab8-e246b8d1800c|52=20170615-05:35:23.045|56=BTCC-FIX-SERVER|98=0|108=30|141=Y|10=148|
8=FIX.4.4|9=112|35=A|34=1|49=BTCC-FIX-SERVER|52=20170615-05:35:26.266|56=02f8e7cb-6a9a-4dff-8ab8-e246b8d1800c|98=0|108=30|141=Y|10=156|
8=FIX.4.4|9=112|35=A|34=1|49=02f8e7cb-6a9a-4dff-8ab8-e246b8d1800c|52=20170615-05:46:44.950|56=BTCC-FIX-SERVER|98=0|108=30|141=Y|10=158|
8=FIX.4.4|9=112|35=A|34=1|49=BTCC-FIX-SERVER|52=20170615-05:46:45.023|56=02f8e7cb-6a9a-4dff-8ab8-e246b8d1800c|98=0|108=30|141=Y|10=150|
8=FIX.4.4|9=112|35=A|34=1|49=02f8e7cb-6a9a-4dff-8ab8-e246b8d1800c|52=20170615-05:46:56.941|56=BTCC-FIX-SERVER|98=0|108=30|141=Y|10=161|
8=FIX.4.4|9=112|35=A|34=1|49=BTCC-FIX-SERVER|52=20170615-05:46:57.040|56=02f8e7cb-6a9a-4dff-8ab8-e246b8d1800c|98=0|108=30|141=Y|10=152|
8=FIX.4.4|9=112|35=A|34=1|49=02f8e7cb-6a9a-4dff-8ab8-e246b8d1800c|52=20170615-05:47:08.942|56=BTCC-FIX-SERVER|98=0|108=30|141=Y|10=160|
8=FIX.4.4|9=112|35=A|34=1|49=BTCC-FIX-SERVER|52=20170615-05:47:09.371|56=02f8e7cb-6a9a-4dff-8ab8-e246b8d1800c|98=0|108=30|141=Y|10=157|
8=FIX.4.4|9=112|35=A|34=1|49=02f8e7cb-6a9a-4dff-8ab8-e246b8d1800c|52=20170615-05:47:21.042|56=BTCC-FIX-SERVER|98=0|108=30|141=Y|10=146|
8=FIX.4.4|9=112|35=A|34=1|49=BTCC-FIX-SERVER|52=20170615-05:47:21.718|56=02f8e7cb-6a9a-4dff-8ab8-e246b8d1800c|98=0|108=30|141=Y|10=156|
8=FIX.4.4|9=112|35=A|34=1|49=02f8e7cb-6a9a-4dff-8ab8-e246b8d1800c|52=20170615-05:47:32.947|56=BTCC-FIX-SERVER|98=0|108=30|141=Y|10=162|
8=FIX.4.4|9=112|35=A|34=1|49=BTCC-FIX-SERVER|52=20170615-05:47:33.125|56=02f8e7cb-6a9a-4dff-8ab8-e246b8d1800c|98=0|108=30|141=Y|10=151|
8=FIX.4.4|9=112|35=A|34=1|49=02f8e7cb-6a9a-4dff-8ab8-e246b8d1800c|52=20170615-05:49:14.269|56=BTCC-FIX-SERVER|98=0|108=30|141=Y|10=161|
8=FIX.4.4|9=112|35=A|34=1|49=BTCC-FIX-SERVER|52=20170615-05:49:14.314|56=02f8e7cb-6a9a-4dff-8ab8-e246b8d1800c|98=0|108=30|141=Y|10=152|
8=FIX.4.4|9=112|35=A|34=1|49=02f8e7cb-6a9a-4dff-8ab8-e246b8d1800c|52=20170615-05:49:26.260|56=BTCC-FIX-SERVER|98=0|108=30|141=Y|10=155|
8=FIX.4.4|9=112|35=A|34=1|49=BTCC-FIX-SERVER|52=20170615-05:49:27.651|56=02f8e7cb-6a9a-4dff-8ab8-e246b8d1800c|98=0|108=30|141=Y|10=160|
8=FIX.4.4|9=112|35=A|34=1|49=02f8e7cb-6a9a-4dff-8ab8-e246b8d1800c|52=20170615-05:49:39.419|56=BTCC-FIX-SERVER|98=0|108=30|141=Y|10=165|
8=FIX.4.4|9=112|35=A|34=1|49=BTCC-FIX-SERVER|52=20170615-05:49:40.584|56=02f8e7cb-6a9a-4dff-8ab8-e246b8d1800c|98=0|108=30|141=Y|10=160|
8=FIX.4.4|9=112|35=A|34=1|49=02f8e7cb-6a9a-4dff-8ab8-e246b8d1800c|52=20170615-05:49:52.258|56=BTCC-FIX-SERVER|98=0|108=30|141=Y|10=161|
8=FIX.4.4|9=112|35=A|34=1|49=BTCC-FIX-SERVER|52=20170615-05:49:52.387|56=02f8e7cb-6a9a-4dff-8ab8-e246b8d1800c|98=0|108=30|141=Y|10=164|
8=FIX.4.4|9=112|35=A|34=1|49=02f8e7cb-6a9a-4dff-8ab8-e246b8d1800c|52=20170615-05:50:04.257|56=BTCC-FIX-SERVER|98=0|108=30|141=Y|10=149|
8=FIX.4.4|9=112|35=A|34=1|49=BTCC-FIX-SERVER|52=20170615-05:50:04.676|56=02f8e7cb-6a9a-4dff-8ab8-e246b8d1800c|98=0|108=30|141=Y|10=154|
8=FIX.4.4|9=112|35=A|34=1|49=02f8e7cb-6a9a-4dff-8ab8-e246b8d1800c|52=20170615-05:50:16.284|56=BTCC-FIX-SERVER|98=0|108=30|141=Y|10=152|
8=FIX.4.4|9=112|35=A|34=1|49=BTCC-FIX-SERVER|52=20170615-05:50:16.962|56=02f8e7cb-6a9a-4dff-8ab8-e246b8d1800c|98=0|108=30|141=Y|10=155|
8=FIX.4.4|9=112|35=A|34=1|49=02f8e7cb-6a9a-4dff-8ab8-e246b8d1800c|52=20170615-05:50:28.262|56=BTCC-FIX-SERVER|98=0|108=30|141=Y|10=151|
8=FIX.4.4|9=112|35=A|34=1|49=02f8e7cb-6a9a-4dff-8ab8-e246b8d1800c|52=20170615-05:50:33.257|56=BTCC-FIX-SERVER|98=0|108=30|141=Y|10=151|
8=FIX.4.4|9=112|35=A|34=1|49=BTCC-FIX-SERVER|52=20170615-05:50:33.820|56=02f8e7cb-6a9a-4dff-8ab8-e246b8d1800c|98=0|108=30|141=Y|10=147|
8=FIX.4.4|9=112|35=A|34=1|49=02f8e7cb-6a9a-4dff-8ab8-e246b8d1800c|52=20170615-05:50:45.258|56=BTCC-FIX-SERVER|98=0|108=30|141=Y|10=155|
8=FIX.4.4|9=112|35=A|34=1|49=BTCC-FIX-SERVER|52=20170615-05:50:45.809|56=02f8e7cb-6a9a-4dff-8ab8-e246b8d1800c|98=0|108=30|141=Y|10=157|
8=FIX.4.4|9=112|35=A|34=1|49=02f8e7cb-6a9a-4dff-8ab8-e246b8d1800c|52=20170615-05:50:57.401|56=BTCC-FIX-SERVER|98=0|108=30|141=Y|10=148|
8=FIX.4.4|9=112|35=A|34=1|49=BTCC-FIX-SERVER|52=20170615-05:50:58.092|56=02f8e7cb-6a9a-4dff-8ab8-e246b8d1800c|98=0|108=30|141=Y|10=155|
8=FIX.4.4|9=112|35=A|34=1|49=02f8e7cb-6a9a-4dff-8ab8-e246b8d1800c|52=20170615-05:57:55.583|56=BTCC-FIX-SERVER|98=0|108=30|141=Y|10=164|
8=FIX.4.4|9=112|35=A|34=1|49=BTCC-FIX-SERVER|52=20170615-05:57:56.872|56=02f8e7cb-6a9a-4dff-8ab8-e246b8d1800c|98=0|108=30|141=Y|10=166|
8=FIX.4.4|9=112|35=A|34=1|49=02f8e7cb-6a9a-4dff-8ab8-e246b8d1800c|52=20170615-05:58:09.198|56=BTCC-FIX-SERVER|98=0|108=30|141=Y|10=166|
8=FIX.4.4|9=112|35=A|34=1|49=BTCC-FIX-SERVER|52=20170615-05:58:10.540|56=02f8e7cb-6a9a-4dff-8ab8-e246b8d1800c|98=0|108=30|141=Y|10=149|
8=FIX.4.4|9=112|35=A|34=1|49=02f8e7cb-6a9a-4dff-8ab8-e246b8d1800c|52=20170615-06:06:31.754|56=BTCC-FIX-SERVER|98=0|108=30|141=Y|10=153|
8=FIX.4.4|9=112|35=A|34=1|49=BTCC-FIX-SERVER|52=20170615-06:06:32.778|56=02f8e7cb-6a9a-4dff-8ab8-e246b8d1800c|98=0|108=30|141=Y|10=160|
8=FIX.4.4|9=112|35=A|34=1|49=02f8e7cb-6a9a-4dff-8ab8-e246b8d1800c|52=20170615-06:06:44.751|56=BTCC-FIX-SERVER|98=0|108=30|141=Y|10=154|
8=FIX.4.4|9=112|35=A|34=1|49=BTCC-FIX-SERVER|52=20170615-06:06:45.756|56=02f8e7cb-6a9a-4dff-8ab8-e246b8d1800c|98=0|108=30|141=Y|10=160|
8=FIX.4.4|9=112|35=A|34=1|49=02f8e7cb-6a9a-4dff-8ab8-e246b8d1800c|52=20170615-06:12:21.403|56=BTCC-FIX-SERVER|98=0|108=30|141=Y|10=140|
8=FIX.4.4|9=112|35=A|34=1|49=BTCC-FIX-SERVER|52=20170615-06:12:21.673|56=02f8e7cb-6a9a-4dff-8ab8-e246b8d1800c|98=0|108=30|141=Y|10=149|
8=FIX.4.4|9=112|35=A|34=1|49=02f8e7cb-6a9a-4dff-8ab8-e246b8d1800c|52=20170615-06:12:33.400|56=BTCC-FIX-SERVER|98=0|108=30|141=Y|10=140|
8=FIX.4.4|9=112|35=A|34=1|49=BTCC-FIX-SERVER|52=20170615-06:12:33.899|56=02f8e7cb-6a9a-4dff-8ab8-e246b8d1800c|98=0|108=30|141=Y|10=162|
8=FIX.4.4|9=112|35=A|34=1|49=02f8e7cb-6a9a-4dff-8ab8-e246b8d1800c|52=20170615-06:14:03.324|56=BTCC-FIX-SERVER|98=0|108=30|141=Y|10=144|
8=FIX.4.4|9=112|35=A|34=1|49=BTCC-FIX-SERVER|52=20170615-06:14:03.373|56=02f8e7cb-6a9a-4dff-8ab8-e246b8d1800c|98=0|108=30|141=Y|10=148|
8=FIX.4.4|9=112|35=A|34=1|49=02f8e7cb-6a9a-4dff-8ab8-e246b8d1800c|52=20170615-06:16:01.713|56=BTCC-FIX-SERVER|98=0|108=30|141=Y|10=146|
8=FIX.4.4|9=112|35=A|34=1|49=BTCC-FIX-SERVER|52=20170615-06:16:02.959|56=02f8e7cb-6a9a-4dff-8ab8-e246b8d1800c|98=0|108=30|141=Y|10=159|
8=FIX.4.4|9=112|35=A|34=1|49=02f8e7cb-6a9a-4dff-8ab8-e246b8d1800c|52=20170615-06:19:38.027|56=BTCC-FIX-SERVER|98=0|108=30|141=Y|10=157|
8=FIX.4.4|9=112|35=A|34=1|49=BTCC-FIX-SERVER|52=20170615-06:19:38.076|56=02f8e7cb-6a9a-4dff-8ab8-e246b8d1800c|98=0|108=30|141=Y|10=161|
8=FIX.4.4|9=112|35=A|34=1|49=02f8e7cb-6a9a-4dff-8ab8-e246b8d1800c|52=20170615-06:19:50.018|56=BTCC-FIX-SERVER|98=0|108=30|141=Y|10=151|
8=FIX.4.4|9=112|35=A|34=1|49=02f8e7cb-6a9a-4dff-8ab8-e246b8d1800c|52=20170615-06:25:38.798|56=BTCC-FIX-SERVER|98=0|108=30|141=Y|10=169|
8=FIX.4.4|9=112|35=A|34=1|49=BTCC-FIX-SERVER|52=20170615-06:25:39.676|56=02f8e7cb-6a9a-4dff-8ab8-e246b8d1800c|98=0|108=30|141=Y|10=165|
8=FIX.4.4|9=112|35=A|34=1|49=02f8e7cb-6a9a-4dff-8ab8-e246b8d1800c|52=20170615-06:25:51.789|56=BTCC-FIX-SERVER|98=0|108=30|141=Y|10=164|
8=FIX.4.4|9=112|35=A|34=1|49=BTCC-FIX-SERVER|52=20170615-06:25:52.293|56=02f8e7cb-6a9a-4dff-8ab8-e246b8d1800c|98=0|108=30|141=Y|10=155|
8=FIX.4.4|9=112|35=A|34=1|49=02f8e7cb-6a9a-4dff-8ab8-e246b8d1800c|52=20170615-06:26:03.898|56=BTCC-FIX-SERVER|98=0|108=30|141=Y|10=163|
8=FIX.4.4|9=112|35=A|34=1|49=BTCC-FIX-SERVER|52=20170615-06:26:04.580|56=02f8e7cb-6a9a-4dff-8ab8-e246b8d1800c|98=0|108=30|141=Y|10=152|
8=FIX.4.4|9=112|35=A|34=1|49=02f8e7cb-6a9a-4dff-8ab8-e246b8d1800c|52=20170615-06:33:24.803|56=BTCC-FIX-SERVER|98=0|108=30|141=Y|10=150|
8=FIX.4.4|9=112|35=A|34=1|49=BTCC-FIX-SERVER|52=20170615-06:33:24.848|56=02f8e7cb-6a9a-4dff-8ab8-e246b8d1800c|98=0|108=30|141=Y|10=159|
8=FIX.4.4|9=112|35=A|34=1|49=02f8e7cb-6a9a-4dff-8ab8-e246b8d1800c|52=20170615-06:33:36.795|56=BTCC-FIX-SERVER|98=0|108=30|141=Y|10=163|
8=FIX.4.4|9=112|35=A|34=1|49=BTCC-FIX-SERVER|52=20170615-06:33:37.270|56=02f8e7cb-6a9a-4dff-8ab8-e246b8d1800c|98=0|108=30|141=Y|10=152|
8=FIX.4.4|9=112|35=A|34=1|49=02f8e7cb-6a9a-4dff-8ab8-e246b8d1800c|52=20170615-06:33:49.645|56=BTCC-FIX-SERVER|98=0|108=30|141=Y|10=161|
8=FIX.4.4|9=112|35=A|34=1|49=BTCC-FIX-SERVER|52=20170615-06:33:51.761|56=02f8e7cb-6a9a-4dff-8ab8-e246b8d1800c|98=0|108=30|141=Y|10=153|
8=FIX.4.4|9=112|35=A|34=1|49=02f8e7cb-6a9a-4dff-8ab8-e246b8d1800c|52=20170615-06:34:03.945|56=BTCC-FIX-SERVER|98=0|108=30|141=Y|10=155|
8=FIX.4.4|9=112|35=A|34=1|49=BTCC-FIX-SERVER|52=20170615-06:34:04.632|56=02f8e7cb-6a9a-4dff-8ab8-e246b8d1800c|98=0|108=30|141=Y|10=149|
