8=FIX.4.4|9=112|35=A|34=1|49=02f8e7cb-6a9a-4dff-8ab8-e246b8d18002|52=20170619-08:44:45.160|56=BTCC-FIX-SERVER|98=0|108=30|141=Y|10=108|
8=FIX.4.4|9=112|35=A|34=1|49=BTCC-FIX-SERVER|52=20170619-08:44:46.928|56=02f8e7cb-6a9a-4dff-8ab8-e246b8d18002|98=0|108=30|141=Y|10=121|
8=FIX.4.4|9=154|35=V|34=2|49=02f8e7cb-6a9a-4dff-8ab8-e246b8d18002|52=20170619-08:44:47.243|56=BTCC-FIX-SERVER|262=123|263=1|264=2|146=1|55=BTCCNY|267=3|269=0|269=1|269=2|10=127|
8=FIX.4.4|9=257|35=W|34=2|49=BTCC-FIX-SERVER|52=20170619-08:44:47.842|56=02f8e7cb-6a9a-4dff-8ab8-e246b8d18002|55=BTCCNY|268=3|269=0|270=19020.05|272=20170619|273=08:44:45.000|269=1|270=19093.79|272=20170619|273=08:44:45.000|269=2|270=19020.05|272=20170619|273=08:44:45.000|10=107|
8=FIX.4.4|9=165|35=X|34=3|49=BTCC-FIX-SERVER|52=20170619-08:45:07.775|56=02f8e7cb-6a9a-4dff-8ab8-e246b8d18002|268=1|279=1|269=0|55=BTCCNY|270=19020.05|272=20170619|273=08:45:07.000|10=009|
8=FIX.4.4|9=94|35=0|34=3|49=02f8e7cb-6a9a-4dff-8ab8-e246b8d18002|52=20170619-08:45:17.774|56=BTCC-FIX-SERVER|10=251|
8=FIX.4.4|9=94|35=0|34=4|49=BTCC-FIX-SERVER|52=20170619-08:45:38.531|56=02f8e7cb-6a9a-4dff-8ab8-e246b8d18002|10=246|
8=FIX.4.4|9=94|35=0|34=4|49=02f8e7cb-6a9a-4dff-8ab8-e246b8d18002|52=20170619-08:45:47.777|56=BTCC-FIX-SERVER|10=002|
8=FIX.4.4|9=94|35=0|34=5|49=BTCC-FIX-SERVER|52=20170619-08:46:08.531|56=02f8e7cb-6a9a-4dff-8ab8-e246b8d18002|10=245|
8=FIX.4.4|9=94|35=0|34=5|49=02f8e7cb-6a9a-4dff-8ab8-e246b8d18002|52=20170619-08:46:18.779|56=BTCC-FIX-SERVER|10=004|
8=FIX.4.4|9=162|35=X|34=6|49=BTCC-FIX-SERVER|52=20170619-08:46:19.698|56=02f8e7cb-6a9a-4dff-8ab8-e246b8d18002|268=1|279=1|269=2|55=BTCCNY|270=19020|272=20170619|273=08:46:19.000|10=132|
8=FIX.4.4|9=165|35=X|34=7|49=BTCC-FIX-SERVER|52=20170619-08:46:38.804|56=02f8e7cb-6a9a-4dff-8ab8-e246b8d18002|268=1|279=1|269=0|55=BTCCNY|270=18990.22|272=20170619|273=08:46:37.000|10=029|
8=FIX.4.4|9=224|35=X|34=8|49=BTCC-FIX-SERVER|52=20170619-08:46:38.841|56=02f8e7cb-6a9a-4dff-8ab8-e246b8d18002|268=2|279=1|269=1|55=BTCCNY|270=19000|272=20170619|273=08:46:38.000|279=1|269=2|55=BTCCNY|270=19000|272=20170619|273=08:46:38.000|10=149|
8=FIX.4.4|9=94|35=0|34=6|49=02f8e7cb-6a9a-4dff-8ab8-e246b8d18002|52=20170619-08:46:49.774|56=BTCC-FIX-SERVER|10=004|
8=FIX.4.4|9=112|35=A|34=1|49=02f8e7cb-6a9a-4dff-8ab8-e246b8d18002|52=20170619-09:25:43.996|56=BTCC-FIX-SERVER|98=0|108=30|141=Y|10=123|
8=FIX.4.4|9=112|35=A|34=1|49=BTCC-FIX-SERVER|52=20170619-09:25:44.185|56=02f8e7cb-6a9a-4dff-8ab8-e246b8d18002|98=0|108=30|141=Y|10=114|
8=FIX.4.4|9=154|35=V|34=2|49=02f8e7cb-6a9a-4dff-8ab8-e246b8d18002|52=20170619-09:25:44.414|56=BTCC-FIX-SERVER|262=123|263=1|264=2|146=1|55=LTCCNY|267=3|269=0|269=1|269=2|10=134|
8=FIX.4.4|9=246|35=W|34=2|49=BTCC-FIX-SERVER|52=20170619-09:25:45.434|56=02f8e7cb-6a9a-4dff-8ab8-e246b8d18002|55=LTCCNY|268=3|269=0|270=353|272=20170619|273=09:25:44.000|269=1|270=354.9|272=20170619|273=09:25:44.000|269=2|270=354.9|272=20170619|273=09:25:44.000|10=074|
8=FIX.4.4|9=162|35=X|34=3|49=BTCC-FIX-SERVER|52=20170619-09:25:56.216|56=02f8e7cb-6a9a-4dff-8ab8-e246b8d18002|268=1|279=1|269=1|55=LTCCNY|270=354.8|272=20170619|273=09:25:56.000|10=128|
8=FIX.4.4|9=224|35=X|34=4|49=BTCC-FIX-SERVER|52=20170619-09:26:01.956|56=02f8e7cb-6a9a-4dff-8ab8-e246b8d18002|268=2|279=1|269=1|55=LTCCNY|270=354.9|272=20170619|273=09:26:01.000|279=1|269=2|55=LTCCNY|270=354.8|272=20170619|273=09:26:01.000|10=156|
8=FIX.4.4|9=162|35=X|34=5|49=BTCC-FIX-SERVER|52=20170619-09:26:01.982|56=02f8e7cb-6a9a-4dff-8ab8-e246b8d18002|268=1|279=1|269=2|55=LTCCNY|270=354.9|272=20170619|273=09:26:01.000|10=124|
8=FIX.4.4|9=94|35=0|34=3|49=02f8e7cb-6a9a-4dff-8ab8-e246b8d18002|52=20170619-09:26:14.991|56=BTCC-FIX-SERVER|10=249|
