8=FIX.4.4|9=112|35=A|34=1|49=02f8e7cb-6a9a-4dff-8ab8-e246b8d1800c|52=20170615-05:34:22.053|56=BTCC-FIX-SERVER|98=0|108=30|141=Y|10=145|
8=FIX.4.4|9=112|35=A|34=1|49=BTCC-FIX-SERVER|52=20170615-05:34:22.482|56=02f8e7cb-6a9a-4dff-8ab8-e246b8d1800c|98=0|108=30|141=Y|10=151|
8=FIX.4.4|9=112|35=A|34=1|49=02f8e7cb-6a9a-4dff-8ab8-e246b8d1800c|52=20170615-05:34:34.046|56=BTCC-FIX-SERVER|98=0|108=30|141=Y|10=150|
8=FIX.4.4|9=112|35=A|34=1|49=BTCC-FIX-SERVER|52=20170615-05:34:34.557|56=02f8e7cb-6a9a-4dff-8ab8-e246b8d1800c|98=0|108=30|141=Y|10=157|
8=FIX.4.4|9=112|35=A|34=1|49=02f8e7cb-6a9a-4dff-8ab8-e246b8d1800c|52=20170615-05:34:46.156|56=BTCC-FIX-SERVER|98=0|108=30|141=Y|10=155|
8=FIX.4.4|9=112|35=A|34=1|49=BTCC-FIX-SERVER|52=20170615-05:34:47.173|56=02f8e7cb-6a9a-4dff-8ab8-e246b8d1800c|98=0|108=30|141=Y|10=155|
8=FIX.4.4|9=112|35=A|34=1|49=02f8e7cb-6a9a-4dff-8ab8-e246b8d1800c|52=20170615-05:34:59.045|56=BTCC-FIX-SERVER|98=0|108=30|141=Y|10=156|
8=FIX.4.4|9=112|35=A|34=1|49=BTCC-FIX-SERVER|52=20170615-05:34:59.131|56=02f8e7cb-6a9a-4dff-8ab8-e246b8d1800c|98=0|108=30|141=Y|10=152|
8=FIX.4.4|9=112|35=A|34=1|49=02f8e7cb-6a9a-4dff-8ab8-e246b8d1800c|52=20170615-05:35:11.046|56=BTCC-FIX-SERVER|98=0|108=30|141=Y|10=146|
8=FIX.4.4|9=112|35=A|34=1|49=BTCC-FIX-SERVER|52=20170615-05:35:11.650|56=02f8e7cb-6a9a-4dff-8ab8-e246b8d1800c|98=0|108=30|141=Y|10=147|
8=FIX.4.4|9=112|35=A|34=1|49=02f8e7cb-6a9a-4dff-8ab8-e246b8d1800c|52=20170615-05:35:23.045|56=BTCC-FIX-SERVER|98=0|108=30|141=Y|10=148|
8=FIX.4.4|9=112|35=A|34=1|49=BTCC-FIX-SERVER|52=20170615-05:35:26.266|56=02f8e7cb-6a9a-4dff-8ab8-e246b8d1800c|98=0|108=30|141=Y|10=156|
