8=FIX.4.4|9=112|35=A|34=1|49=02f8e7cb-6a9a-4dff-8ab8-e246b8d18002|52=20170625-04:40:01.816|56=BTCC-FIX-SERVER|98=0|108=30|141=Y|10=097|
8=FIX.4.4|9=112|35=A|34=1|49=BTCC-FIX-SERVER|52=20170625-04:39:17.478|56=02f8e7cb-6a9a-4dff-8ab8-e246b8d18002|98=0|108=30|141=Y|10=116|
8=FIX.4.4|9=154|35=V|34=2|49=02f8e7cb-6a9a-4dff-8ab8-e246b8d18002|52=20170625-04:40:01.970|56=BTCC-FIX-SERVER|262=123|263=1|264=5|146=1|55=LTCCNY|267=3|269=0|269=1|269=2|10=126|
8=FIX.4.4|9=251|35=W|34=2|49=BTCC-FIX-SERVER|52=20170625-04:39:17.637|56=02f8e7cb-6a9a-4dff-8ab8-e246b8d18002|55=LTCCNY|268=3|269=0|270=319.01|272=20170625|273=04:39:16.000|269=1|270=321.98|272=20170625|273=04:39:16.000|269=2|270=319.01|272=20170625|273=04:39:16.000|10=039|
8=FIX.4.4|9=225|35=X|34=3|49=BTCC-FIX-SERVER|52=20170625-04:39:35.172|56=02f8e7cb-6a9a-4dff-8ab8-e246b8d18002|268=2|279=1|269=1|55=LTCCNY|270=322.4|272=20170625|273=04:39:34.000|279=1|269=2|55=LTCCNY|270=321.98|272=20170625|273=04:39:34.000|10=194|
8=FIX.4.4|9=160|35=X|34=4|49=BTCC-FIX-SERVER|52=20170625-04:39:35.193|56=02f8e7cb-6a9a-4dff-8ab8-e246b8d18002|268=1|279=1|269=2|55=LTCCNY|270=322|272=20170625|273=04:39:34.000|10=012|
8=FIX.4.4|9=94|35=0|34=3|49=02f8e7cb-6a9a-4dff-8ab8-e246b8d18002|52=20170625-04:40:32.812|56=BTCC-FIX-SERVER|10=229|
8=FIX.4.4|9=94|35=0|34=5|49=BTCC-FIX-SERVER|52=20170625-04:40:05.531|56=02f8e7cb-6a9a-4dff-8ab8-e246b8d18002|10=229|
8=FIX.4.4|9=163|35=X|34=6|49=BTCC-FIX-SERVER|52=20170625-04:40:05.688|56=02f8e7cb-6a9a-4dff-8ab8-e246b8d18002|268=1|279=1|269=2|55=LTCCNY|270=319.01|272=20170625|273=04:40:05.000|10=154|
8=FIX.4.4|9=163|35=X|34=7|49=BTCC-FIX-SERVER|52=20170625-04:40:13.394|56=02f8e7cb-6a9a-4dff-8ab8-e246b8d18002|268=1|279=1|269=0|55=LTCCNY|270=319.02|272=20170625|273=04:40:13.000|10=146|
8=FIX.4.4|9=163|35=X|34=8|49=BTCC-FIX-SERVER|52=20170625-04:40:17.141|56=02f8e7cb-6a9a-4dff-8ab8-e246b8d18002|268=1|279=1|269=0|55=LTCCNY|270=319.03|272=20170625|273=04:40:17.000|10=146|
8=FIX.4.4|9=94|35=0|34=4|49=02f8e7cb-6a9a-4dff-8ab8-e246b8d18002|52=20170625-04:41:02.812|56=BTCC-FIX-SERVER|10=228|
8=FIX.4.4|9=94|35=0|34=9|49=BTCC-FIX-SERVER|52=20170625-04:40:47.531|56=02f8e7cb-6a9a-4dff-8ab8-e246b8d18002|10=239|
8=FIX.4.4|9=94|35=0|34=5|49=02f8e7cb-6a9a-4dff-8ab8-e246b8d18002|52=20170625-04:41:32.812|56=BTCC-FIX-SERVER|10=232|
8=FIX.4.4|9=164|35=X|34=10|49=BTCC-FIX-SERVER|52=20170625-04:40:54.464|56=02f8e7cb-6a9a-4dff-8ab8-e246b8d18002|268=1|279=1|269=0|55=LTCCNY|270=319.04|272=20170625|273=04:40:54.000|10=199|
8=FIX.4.4|9=164|35=X|34=11|49=BTCC-FIX-SERVER|52=20170625-04:40:57.706|56=02f8e7cb-6a9a-4dff-8ab8-e246b8d18002|268=1|279=1|269=0|55=LTCCNY|270=319.05|272=20170625|273=04:40:57.000|10=206|
8=FIX.4.4|9=94|35=0|34=6|49=02f8e7cb-6a9a-4dff-8ab8-e246b8d18002|52=20170625-04:42:03.814|56=BTCC-FIX-SERVER|10=234|
8=FIX.4.4|9=95|35=0|34=12|49=BTCC-FIX-SERVER|52=20170625-04:41:28.531|56=02f8e7cb-6a9a-4dff-8ab8-e246b8d18002|10=026|
8=FIX.4.4|9=163|35=X|34=13|49=BTCC-FIX-SERVER|52=20170625-04:41:47.658|56=02f8e7cb-6a9a-4dff-8ab8-e246b8d18002|268=1|279=1|269=2|55=LTCCNY|270=322.4|272=20170625|273=04:41:47.000|10=160|
8=FIX.4.4|9=94|35=0|34=7|49=02f8e7cb-6a9a-4dff-8ab8-e246b8d18002|52=20170625-04:42:33.815|56=BTCC-FIX-SERVER|10=239|
8=FIX.4.4|9=164|35=X|34=14|49=BTCC-FIX-SERVER|52=20170625-04:42:08.674|56=02f8e7cb-6a9a-4dff-8ab8-e246b8d18002|268=1|279=1|269=0|55=LTCCNY|270=319.06|272=20170625|273=04:42:08.000|10=210|
8=FIX.4.4|9=164|35=X|34=15|49=BTCC-FIX-SERVER|52=20170625-04:42:11.558|56=02f8e7cb-6a9a-4dff-8ab8-e246b8d18002|268=1|279=1|269=0|55=LTCCNY|270=319.07|272=20170625|273=04:42:11.000|10=201|
8=FIX.4.4|9=94|35=0|34=8|49=02f8e7cb-6a9a-4dff-8ab8-e246b8d18002|52=20170625-04:43:04.810|56=BTCC-FIX-SERVER|10=234|
8=FIX.4.4|9=164|35=X|34=16|49=BTCC-FIX-SERVER|52=20170625-04:42:23.073|56=02f8e7cb-6a9a-4dff-8ab8-e246b8d18002|268=1|279=1|269=0|55=LTCCNY|270=319.08|272=20170625|273=04:42:23.000|10=201|
8=FIX.4.4|9=164|35=X|34=17|49=BTCC-FIX-SERVER|52=20170625-04:42:26.100|56=02f8e7cb-6a9a-4dff-8ab8-e246b8d18002|268=1|279=1|269=0|55=LTCCNY|270=319.09|272=20170625|273=04:42:25.000|10=199|
8=FIX.4.4|9=163|35=X|34=18|49=BTCC-FIX-SERVER|52=20170625-04:42:50.016|56=02f8e7cb-6a9a-4dff-8ab8-e246b8d18002|268=1|279=1|269=0|55=LTCCNY|270=319.1|272=20170625|273=04:42:49.000|10=152|
8=FIX.4.4|9=94|35=0|34=9|49=02f8e7cb-6a9a-4dff-8ab8-e246b8d18002|52=20170625-04:43:34.814|56=BTCC-FIX-SERVER|10=242|
8=FIX.4.4|9=164|35=X|34=19|49=BTCC-FIX-SERVER|52=20170625-04:42:52.943|56=02f8e7cb-6a9a-4dff-8ab8-e246b8d18002|268=1|279=1|269=0|55=LTCCNY|270=319.11|272=20170625|273=04:42:52.000|10=208|
8=FIX.4.4|9=164|35=X|34=20|49=BTCC-FIX-SERVER|52=20170625-04:43:11.470|56=02f8e7cb-6a9a-4dff-8ab8-e246b8d18002|268=1|279=1|269=0|55=LTCCNY|270=319.12|272=20170625|273=04:43:11.000|10=188|
8=FIX.4.4|9=164|35=X|34=21|49=BTCC-FIX-SERVER|52=20170625-04:43:13.441|56=02f8e7cb-6a9a-4dff-8ab8-e246b8d18002|268=1|279=1|269=0|55=LTCCNY|270=319.18|272=20170625|273=04:43:13.000|10=197|
8=FIX.4.4|9=164|35=X|34=22|49=BTCC-FIX-SERVER|52=20170625-04:43:17.310|56=02f8e7cb-6a9a-4dff-8ab8-e246b8d18002|268=1|279=1|269=0|55=LTCCNY|270=319.19|272=20170625|273=04:43:17.000|10=202|
8=FIX.4.4|9=95|35=0|34=10|49=02f8e7cb-6a9a-4dff-8ab8-e246b8d18002|52=20170625-04:44:04.817|56=BTCC-FIX-SERVER|10=028|
8=FIX.4.4|9=161|35=X|34=23|49=BTCC-FIX-SERVER|52=20170625-04:43:29.789|56=02f8e7cb-6a9a-4dff-8ab8-e246b8d18002|268=1|279=1|269=0|55=LTCCNY|270=320|272=20170625|273=04:43:29.000|10=066|
8=FIX.4.4|9=164|35=X|34=24|49=BTCC-FIX-SERVER|52=20170625-04:43:32.704|56=02f8e7cb-6a9a-4dff-8ab8-e246b8d18002|268=1|279=1|269=0|55=LTCCNY|270=320.01|272=20170625|273=04:43:32.000|10=188|
8=FIX.4.4|9=95|35=0|34=11|49=02f8e7cb-6a9a-4dff-8ab8-e246b8d18002|52=20170625-04:44:35.813|56=BTCC-FIX-SERVER|10=029|
8=FIX.4.4|9=95|35=0|34=25|49=BTCC-FIX-SERVER|52=20170625-04:44:03.531|56=02f8e7cb-6a9a-4dff-8ab8-e246b8d18002|10=026|
8=FIX.4.4|9=164|35=X|34=26|49=BTCC-FIX-SERVER|52=20170625-04:44:09.770|56=02f8e7cb-6a9a-4dff-8ab8-e246b8d18002|268=1|279=1|269=1|55=LTCCNY|270=322.78|272=20170625|273=04:44:09.000|10=220|
8=FIX.4.4|9=163|35=X|34=27|49=BTCC-FIX-SERVER|52=20170625-04:44:09.812|56=02f8e7cb-6a9a-4dff-8ab8-e246b8d18002|268=1|279=1|269=2|55=LTCCNY|270=322.5|272=20170625|273=04:44:09.000|10=160|
8=FIX.4.4|9=164|35=X|34=28|49=BTCC-FIX-SERVER|52=20170625-04:44:09.854|56=02f8e7cb-6a9a-4dff-8ab8-e246b8d18002|268=1|279=1|269=2|55=LTCCNY|270=322.78|272=20170625|273=04:44:09.000|10=226|
8=FIX.4.4|9=95|35=0|34=12|49=02f8e7cb-6a9a-4dff-8ab8-e246b8d18002|52=20170625-04:45:05.819|56=BTCC-FIX-SERVER|10=034|
8=FIX.4.4|9=164|35=X|34=29|49=BTCC-FIX-SERVER|52=20170625-04:44:24.790|56=02f8e7cb-6a9a-4dff-8ab8-e246b8d18002|268=1|279=1|269=0|55=LTCCNY|270=320.02|272=20170625|273=04:44:24.000|10=203|
8=FIX.4.4|9=164|35=X|34=30|49=BTCC-FIX-SERVER|52=20170625-04:44:26.589|56=02f8e7cb-6a9a-4dff-8ab8-e246b8d18002|268=1|279=1|269=0|55=LTCCNY|270=320.03|272=20170625|273=04:44:26.000|10=206|
8=FIX.4.4|9=95|35=0|34=13|49=02f8e7cb-6a9a-4dff-8ab8-e246b8d18002|52=20170625-04:45:35.819|56=BTCC-FIX-SERVER|10=038|
8=FIX.4.4|9=164|35=X|34=31|49=BTCC-FIX-SERVER|52=20170625-04:44:57.320|56=02f8e7cb-6a9a-4dff-8ab8-e246b8d18002|268=1|279=1|269=0|55=LTCCNY|270=320.04|272=20170625|273=04:44:57.000|10=199|
8=FIX.4.4|9=164|35=X|34=32|49=BTCC-FIX-SERVER|52=20170625-04:45:01.337|56=02f8e7cb-6a9a-4dff-8ab8-e246b8d18002|268=1|279=1|269=0|55=LTCCNY|270=320.05|272=20170625|273=04:45:01.000|10=189|
8=FIX.4.4|9=161|35=X|34=33|49=BTCC-FIX-SERVER|52=20170625-04:45:07.027|56=02f8e7cb-6a9a-4dff-8ab8-e246b8d18002|268=1|279=1|269=0|55=LTCCNY|270=321|272=20170625|273=04:45:06.000|10=048|
8=FIX.4.4|9=95|35=0|34=14|49=02f8e7cb-6a9a-4dff-8ab8-e246b8d18002|52=20170625-04:46:05.821|56=BTCC-FIX-SERVER|10=030|
8=FIX.4.4|9=95|35=0|34=34|49=BTCC-FIX-SERVER|52=20170625-04:45:37.531|56=02f8e7cb-6a9a-4dff-8ab8-e246b8d18002|10=034|
8=FIX.4.4|9=95|35=0|34=15|49=02f8e7cb-6a9a-4dff-8ab8-e246b8d18002|52=20170625-04:46:35.822|56=BTCC-FIX-SERVER|10=035|
8=FIX.4.4|9=95|35=0|34=35|49=BTCC-FIX-SERVER|52=20170625-04:46:07.531|56=02f8e7cb-6a9a-4dff-8ab8-e246b8d18002|10=033|
8=FIX.4.4|9=227|35=X|34=36|49=BTCC-FIX-SERVER|52=20170625-04:46:21.784|56=02f8e7cb-6a9a-4dff-8ab8-e246b8d18002|268=2|279=1|269=0|55=LTCCNY|270=321.01|272=20170625|273=04:46:21.000|279=1|269=2|55=LTCCNY|270=321.01|272=20170625|273=04:46:21.000|10=011|
8=FIX.4.4|9=95|35=0|34=16|49=02f8e7cb-6a9a-4dff-8ab8-e246b8d18002|52=20170625-04:47:06.327|56=BTCC-FIX-SERVER|10=035|
8=FIX.4.4|9=164|35=X|34=37|49=BTCC-FIX-SERVER|52=20170625-04:46:28.743|56=02f8e7cb-6a9a-4dff-8ab8-e246b8d18002|268=1|279=1|269=2|55=LTCCNY|270=322.78|272=20170625|273=04:46:28.000|10=229|
8=FIX.4.4|9=95|35=0|34=17|49=02f8e7cb-6a9a-4dff-8ab8-e246b8d18002|52=20170625-04:47:36.821|56=BTCC-FIX-SERVER|10=038|
8=FIX.4.4|9=95|35=0|34=38|49=BTCC-FIX-SERVER|52=20170625-04:46:59.531|56=02f8e7cb-6a9a-4dff-8ab8-e246b8d18002|10=043|
8=FIX.4.4|9=164|35=X|34=39|49=BTCC-FIX-SERVER|52=20170625-04:47:18.838|56=02f8e7cb-6a9a-4dff-8ab8-e246b8d18002|268=1|279=1|269=0|55=LTCCNY|270=322.77|272=20170625|273=04:47:18.000|10=233|
8=FIX.4.4|9=95|35=0|34=18|49=02f8e7cb-6a9a-4dff-8ab8-e246b8d18002|52=20170625-04:48:06.824|56=BTCC-FIX-SERVER|10=040|
8=FIX.4.4|9=163|35=X|34=40|49=BTCC-FIX-SERVER|52=20170625-04:47:27.754|56=02f8e7cb-6a9a-4dff-8ab8-e246b8d18002|268=1|279=1|269=1|55=LTCCNY|270=323.5|272=20170625|273=04:47:27.000|10=166|
8=FIX.4.4|9=161|35=X|34=41|49=BTCC-FIX-SERVER|52=20170625-04:47:27.775|56=02f8e7cb-6a9a-4dff-8ab8-e246b8d18002|268=1|279=1|269=2|55=LTCCNY|270=323|272=20170625|273=04:47:27.000|10=070|
8=FIX.4.4|9=163|35=X|34=42|49=BTCC-FIX-SERVER|52=20170625-04:47:27.797|56=02f8e7cb-6a9a-4dff-8ab8-e246b8d18002|268=1|279=1|269=2|55=LTCCNY|270=323.5|272=20170625|273=04:47:27.000|10=176|
8=FIX.4.4|9=164|35=X|34=43|49=BTCC-FIX-SERVER|52=20170625-04:47:29.439|56=02f8e7cb-6a9a-4dff-8ab8-e246b8d18002|268=1|279=1|269=1|55=LTCCNY|270=323.49|272=20170625|273=04:47:29.000|10=230|
8=FIX.4.4|9=112|35=A|34=1|49=02f8e7cb-6a9a-4dff-8ab8-e246b8d18002|52=20170625-04:48:46.708|56=BTCC-FIX-SERVER|98=0|108=30|141=Y|10=114|
8=FIX.4.4|9=112|35=A|34=1|49=BTCC-FIX-SERVER|52=20170625-04:48:02.369|56=02f8e7cb-6a9a-4dff-8ab8-e246b8d18002|98=0|108=30|141=Y|10=109|
8=FIX.4.4|9=154|35=V|34=2|49=02f8e7cb-6a9a-4dff-8ab8-e246b8d18002|52=20170625-04:48:46.882|56=BTCC-FIX-SERVER|262=123|263=1|264=0|146=1|55=LTCCNY|267=3|269=0|269=1|269=2|10=140|
8=FIX.4.4|9=250|35=W|34=2|49=BTCC-FIX-SERVER|52=20170625-04:48:03.227|56=02f8e7cb-6a9a-4dff-8ab8-e246b8d18002|55=LTCCNY|268=3|269=0|270=322.77|272=20170625|273=04:48:00.000|269=1|270=323.49|272=20170625|273=04:48:00.000|269=2|270=323.5|272=20170625|273=04:48:00.000|10=219|
8=FIX.4.4|9=94|35=0|34=3|49=02f8e7cb-6a9a-4dff-8ab8-e246b8d18002|52=20170625-04:49:17.709|56=BTCC-FIX-SERVER|10=246|
8=FIX.4.4|9=94|35=0|34=3|49=BTCC-FIX-SERVER|52=20170625-04:48:33.369|56=02f8e7cb-6a9a-4dff-8ab8-e246b8d18002|10=245|
8=FIX.4.4|9=285|35=X|34=4|49=BTCC-FIX-SERVER|52=20170625-04:49:02.245|56=02f8e7cb-6a9a-4dff-8ab8-e246b8d18002|268=3|279=1|269=0|55=LTCCNY|270=319.8|272=20170625|273=04:49:02.000|279=1|269=1|55=LTCCNY|270=321|272=20170625|273=04:49:02.000|279=1|269=2|55=LTCCNY|270=322.77|272=20170625|273=04:49:02.000|10=119|
8=FIX.4.4|9=163|35=X|34=5|49=BTCC-FIX-SERVER|52=20170625-04:49:02.266|56=02f8e7cb-6a9a-4dff-8ab8-e246b8d18002|268=1|279=1|269=2|55=LTCCNY|270=321.01|272=20170625|273=04:49:02.000|10=150|
8=FIX.4.4|9=94|35=0|34=4|49=02f8e7cb-6a9a-4dff-8ab8-e246b8d18002|52=20170625-04:49:48.708|56=BTCC-FIX-SERVER|10=250|
8=FIX.4.4|9=163|35=X|34=6|49=BTCC-FIX-SERVER|52=20170625-04:49:09.651|56=02f8e7cb-6a9a-4dff-8ab8-e246b8d18002|268=1|279=1|269=0|55=LTCCNY|270=319.81|272=20170625|273=04:49:09.000|10=176|
8=FIX.4.4|9=162|35=X|34=7|49=BTCC-FIX-SERVER|52=20170625-04:49:11.609|56=02f8e7cb-6a9a-4dff-8ab8-e246b8d18002|268=1|279=1|269=0|55=LTCCNY|270=319.8|272=20170625|273=04:49:11.000|10=116|
8=FIX.4.4|9=160|35=X|34=8|49=BTCC-FIX-SERVER|52=20170625-04:49:12.067|56=02f8e7cb-6a9a-4dff-8ab8-e246b8d18002|268=1|279=1|269=2|55=LTCCNY|270=321|272=20170625|273=04:49:11.000|10=007|
8=FIX.4.4|9=160|35=X|34=9|49=BTCC-FIX-SERVER|52=20170625-04:49:31.741|56=02f8e7cb-6a9a-4dff-8ab8-e246b8d18002|268=1|279=1|269=0|55=LTCCNY|270=320|272=20170625|273=04:49:31.000|10=007|
8=FIX.4.4|9=94|35=0|34=5|49=02f8e7cb-6a9a-4dff-8ab8-e246b8d18002|52=20170625-04:50:18.708|56=BTCC-FIX-SERVER|10=240|
8=FIX.4.4|9=224|35=X|34=10|49=BTCC-FIX-SERVER|52=20170625-04:49:43.926|56=02f8e7cb-6a9a-4dff-8ab8-e246b8d18002|268=2|279=1|269=0|55=LTCCNY|270=321|272=20170625|273=04:49:43.000|279=1|269=1|55=LTCCNY|270=323.49|272=20170625|273=04:49:43.000|10=145|
8=FIX.4.4|9=94|35=0|34=6|49=02f8e7cb-6a9a-4dff-8ab8-e246b8d18002|52=20170625-04:50:48.709|56=BTCC-FIX-SERVER|10=245|
8=FIX.4.4|9=95|35=0|34=11|49=BTCC-FIX-SERVER|52=20170625-04:50:14.531|56=02f8e7cb-6a9a-4dff-8ab8-e246b8d18002|10=020|
8=FIX.4.4|9=94|35=0|34=7|49=02f8e7cb-6a9a-4dff-8ab8-e246b8d18002|52=20170625-04:51:19.706|56=BTCC-FIX-SERVER|10=242|
8=FIX.4.4|9=95|35=0|34=12|49=BTCC-FIX-SERVER|52=20170625-04:50:44.531|56=02f8e7cb-6a9a-4dff-8ab8-e246b8d18002|10=024|
8=FIX.4.4|9=164|35=X|34=13|49=BTCC-FIX-SERVER|52=20170625-04:50:50.039|56=02f8e7cb-6a9a-4dff-8ab8-e246b8d18002|268=1|279=1|269=1|55=LTCCNY|270=323.48|272=20170625|273=04:50:49.000|10=206|
8=FIX.4.4|9=163|35=X|34=14|49=BTCC-FIX-SERVER|52=20170625-04:50:50.685|56=02f8e7cb-6a9a-4dff-8ab8-e246b8d18002|268=1|279=1|269=1|55=LTCCNY|270=323.5|272=20170625|273=04:50:50.000|10=150|
8=FIX.4.4|9=164|35=X|34=15|49=BTCC-FIX-SERVER|52=20170625-04:50:51.147|56=02f8e7cb-6a9a-4dff-8ab8-e246b8d18002|268=1|279=1|269=1|55=LTCCNY|270=323.47|272=20170625|273=04:50:51.000|10=201|
8=FIX.4.4|9=94|35=0|34=8|49=02f8e7cb-6a9a-4dff-8ab8-e246b8d18002|52=20170625-04:51:49.712|56=BTCC-FIX-SERVER|10=243|
8=FIX.4.4|9=95|35=0|34=16|49=BTCC-FIX-SERVER|52=20170625-04:51:21.531|56=02f8e7cb-6a9a-4dff-8ab8-e246b8d18002|10=024|
8=FIX.4.4|9=94|35=0|34=9|49=02f8e7cb-6a9a-4dff-8ab8-e246b8d18002|52=20170625-04:52:20.709|56=BTCC-FIX-SERVER|10=240|
8=FIX.4.4|9=161|35=X|34=17|49=BTCC-FIX-SERVER|52=20170625-04:51:38.772|56=02f8e7cb-6a9a-4dff-8ab8-e246b8d18002|268=1|279=1|269=0|55=LTCCNY|270=322|272=20170625|273=04:51:38.000|10=061|
8=FIX.4.4|9=161|35=X|34=18|49=BTCC-FIX-SERVER|52=20170625-04:51:52.710|56=02f8e7cb-6a9a-4dff-8ab8-e246b8d18002|268=1|279=1|269=2|55=LTCCNY|270=322|272=20170625|273=04:51:52.000|10=048|
8=FIX.4.4|9=95|35=0|34=10|49=02f8e7cb-6a9a-4dff-8ab8-e246b8d18002|52=20170625-04:52:50.711|56=BTCC-FIX-SERVER|10=021|
8=FIX.4.4|9=95|35=0|34=19|49=BTCC-FIX-SERVER|52=20170625-04:52:23.531|56=02f8e7cb-6a9a-4dff-8ab8-e246b8d18002|10=030|
8=FIX.4.4|9=95|35=0|34=11|49=02f8e7cb-6a9a-4dff-8ab8-e246b8d18002|52=20170625-04:53:21.709|56=BTCC-FIX-SERVER|10=028|
8=FIX.4.4|9=95|35=0|34=20|49=BTCC-FIX-SERVER|52=20170625-04:52:53.531|56=02f8e7cb-6a9a-4dff-8ab8-e246b8d18002|10=025|
8=FIX.4.4|9=95|35=0|34=12|49=02f8e7cb-6a9a-4dff-8ab8-e246b8d18002|52=20170625-04:53:51.711|56=BTCC-FIX-SERVER|10=025|
8=FIX.4.4|9=95|35=0|34=21|49=BTCC-FIX-SERVER|52=20170625-04:53:23.531|56=02f8e7cb-6a9a-4dff-8ab8-e246b8d18002|10=024|
8=FIX.4.4|9=95|35=0|34=13|49=02f8e7cb-6a9a-4dff-8ab8-e246b8d18002|52=20170625-04:54:21.711|56=BTCC-FIX-SERVER|10=024|
8=FIX.4.4|9=95|35=0|34=22|49=BTCC-FIX-SERVER|52=20170625-04:53:53.531|56=02f8e7cb-6a9a-4dff-8ab8-e246b8d18002|10=028|
8=FIX.4.4|9=95|35=0|34=14|49=02f8e7cb-6a9a-4dff-8ab8-e246b8d18002|52=20170625-04:54:51.711|56=BTCC-FIX-SERVER|10=028|
8=FIX.4.4|9=95|35=0|34=23|49=BTCC-FIX-SERVER|52=20170625-04:54:23.531|56=02f8e7cb-6a9a-4dff-8ab8-e246b8d18002|10=027|
8=FIX.4.4|9=95|35=0|34=15|49=02f8e7cb-6a9a-4dff-8ab8-e246b8d18002|52=20170625-04:55:21.712|56=BTCC-FIX-SERVER|10=028|
8=FIX.4.4|9=95|35=0|34=24|49=BTCC-FIX-SERVER|52=20170625-04:54:53.531|56=02f8e7cb-6a9a-4dff-8ab8-e246b8d18002|10=031|
8=FIX.4.4|9=95|35=0|34=16|49=02f8e7cb-6a9a-4dff-8ab8-e246b8d18002|52=20170625-04:55:51.718|56=BTCC-FIX-SERVER|10=038|
8=FIX.4.4|9=95|35=0|34=25|49=BTCC-FIX-SERVER|52=20170625-04:55:23.531|56=02f8e7cb-6a9a-4dff-8ab8-e246b8d18002|10=030|
8=FIX.4.4|9=164|35=X|34=26|49=BTCC-FIX-SERVER|52=20170625-04:55:35.073|56=02f8e7cb-6a9a-4dff-8ab8-e246b8d18002|268=1|279=1|269=2|55=LTCCNY|270=323.47|272=20170625|273=04:55:34.000|10=215|
8=FIX.4.4|9=95|35=0|34=17|49=02f8e7cb-6a9a-4dff-8ab8-e246b8d18002|52=20170625-04:56:22.718|56=BTCC-FIX-SERVER|10=038|
8=FIX.4.4|9=164|35=X|34=27|49=BTCC-FIX-SERVER|52=20170625-04:55:43.360|56=02f8e7cb-6a9a-4dff-8ab8-e246b8d18002|268=1|279=1|269=1|55=LTCCNY|270=323.46|272=20170625|273=04:55:43.000|10=212|
8=FIX.4.4|9=161|35=X|34=28|49=BTCC-FIX-SERVER|52=20170625-04:55:44.680|56=02f8e7cb-6a9a-4dff-8ab8-e246b8d18002|268=1|279=1|269=2|55=LTCCNY|270=322|272=20170625|273=04:55:44.000|10=065|
8=FIX.4.4|9=164|35=X|34=29|49=BTCC-FIX-SERVER|52=20170625-04:55:45.412|56=02f8e7cb-6a9a-4dff-8ab8-e246b8d18002|268=1|279=1|269=1|55=LTCCNY|270=323.45|272=20170625|273=04:55:45.000|10=215|
8=FIX.4.4|9=164|35=X|34=30|49=BTCC-FIX-SERVER|52=20170625-04:55:52.229|56=02f8e7cb-6a9a-4dff-8ab8-e246b8d18002|268=1|279=1|269=1|55=LTCCNY|270=323.44|272=20170625|273=04:55:52.000|10=208|
8=FIX.4.4|9=164|35=X|34=31|49=BTCC-FIX-SERVER|52=20170625-04:55:54.936|56=02f8e7cb-6a9a-4dff-8ab8-e246b8d18002|268=1|279=1|269=1|55=LTCCNY|270=323.43|272=20170625|273=04:55:54.000|10=217|
8=FIX.4.4|9=164|35=X|34=32|49=BTCC-FIX-SERVER|52=20170625-04:55:56.519|56=02f8e7cb-6a9a-4dff-8ab8-e246b8d18002|268=1|279=1|269=1|55=LTCCNY|270=323.42|272=20170625|273=04:55:56.000|10=218|
8=FIX.4.4|9=164|35=X|34=33|49=BTCC-FIX-SERVER|52=20170625-04:55:59.680|56=02f8e7cb-6a9a-4dff-8ab8-e246b8d18002|268=1|279=1|269=1|55=LTCCNY|270=323.41|272=20170625|273=04:55:59.000|10=223|
8=FIX.4.4|9=163|35=X|34=34|49=BTCC-FIX-SERVER|52=20170625-04:56:00.972|56=02f8e7cb-6a9a-4dff-8ab8-e246b8d18002|268=1|279=1|269=1|55=LTCCNY|270=323.4|272=20170625|273=04:56:00.000|10=152|
8=FIX.4.4|9=164|35=X|34=35|49=BTCC-FIX-SERVER|52=20170625-04:56:03.388|56=02f8e7cb-6a9a-4dff-8ab8-e246b8d18002|268=1|279=1|269=1|55=LTCCNY|270=323.39|272=20170625|273=04:56:03.000|10=217|
8=FIX.4.4|9=164|35=X|34=36|49=BTCC-FIX-SERVER|52=20170625-04:56:06.579|56=02f8e7cb-6a9a-4dff-8ab8-e246b8d18002|268=1|279=1|269=1|55=LTCCNY|270=323.38|272=20170625|273=04:56:06.000|10=225|
8=FIX.4.4|9=95|35=0|34=18|49=02f8e7cb-6a9a-4dff-8ab8-e246b8d18002|52=20170625-04:56:53.714|56=BTCC-FIX-SERVER|10=039|
8=FIX.4.4|9=164|35=X|34=37|49=BTCC-FIX-SERVER|52=20170625-04:56:09.383|56=02f8e7cb-6a9a-4dff-8ab8-e246b8d18002|268=1|279=1|269=1|55=LTCCNY|270=323.37|272=20170625|273=04:56:09.000|10=224|
8=FIX.4.4|9=164|35=X|34=38|49=BTCC-FIX-SERVER|52=20170625-04:56:10.887|56=02f8e7cb-6a9a-4dff-8ab8-e246b8d18002|268=1|279=1|269=1|55=LTCCNY|270=323.38|272=20170625|273=04:56:10.000|10=219|
8=FIX.4.4|9=163|35=X|34=39|49=BTCC-FIX-SERVER|52=20170625-04:56:12.312|56=02f8e7cb-6a9a-4dff-8ab8-e246b8d18002|268=1|279=1|269=1|55=LTCCNY|270=323.5|272=20170625|273=04:56:12.000|10=152|
8=FIX.4.4|9=164|35=X|34=40|49=BTCC-FIX-SERVER|52=20170625-04:56:12.825|56=02f8e7cb-6a9a-4dff-8ab8-e246b8d18002|268=1|279=1|269=1|55=LTCCNY|270=323.36|272=20170625|273=04:56:12.000|10=206|
8=FIX.4.4|9=164|35=X|34=41|49=BTCC-FIX-SERVER|52=20170625-04:56:23.891|56=02f8e7cb-6a9a-4dff-8ab8-e246b8d18002|268=1|279=1|269=2|55=LTCCNY|270=323.36|272=20170625|273=04:56:23.000|10=215|
8=FIX.4.4|9=95|35=0|34=19|49=02f8e7cb-6a9a-4dff-8ab8-e246b8d18002|52=20170625-04:57:23.719|56=BTCC-FIX-SERVER|10=043|
8=FIX.4.4|9=95|35=0|34=42|49=BTCC-FIX-SERVER|52=20170625-04:56:54.531|56=02f8e7cb-6a9a-4dff-8ab8-e246b8d18002|10=034|
8=FIX.4.4|9=95|35=0|34=20|49=02f8e7cb-6a9a-4dff-8ab8-e246b8d18002|52=20170625-04:57:54.722|56=BTCC-FIX-SERVER|10=033|
8=FIX.4.4|9=95|35=0|34=43|49=BTCC-FIX-SERVER|52=20170625-04:57:24.531|56=02f8e7cb-6a9a-4dff-8ab8-e246b8d18002|10=033|
8=FIX.4.4|9=95|35=0|34=21|49=02f8e7cb-6a9a-4dff-8ab8-e246b8d18002|52=20170625-04:58:24.723|56=BTCC-FIX-SERVER|10=033|
8=FIX.4.4|9=95|35=0|34=44|49=BTCC-FIX-SERVER|52=20170625-04:57:54.531|56=02f8e7cb-6a9a-4dff-8ab8-e246b8d18002|10=037|
8=FIX.4.4|9=95|35=0|34=22|49=02f8e7cb-6a9a-4dff-8ab8-e246b8d18002|52=20170625-04:58:55.718|56=BTCC-FIX-SERVER|10=042|
8=FIX.4.4|9=95|35=0|34=45|49=BTCC-FIX-SERVER|52=20170625-04:58:24.531|56=02f8e7cb-6a9a-4dff-8ab8-e246b8d18002|10=036|
8=FIX.4.4|9=95|35=0|34=23|49=02f8e7cb-6a9a-4dff-8ab8-e246b8d18002|52=20170625-04:59:25.725|56=BTCC-FIX-SERVER|10=039|
8=FIX.4.4|9=95|35=0|34=46|49=BTCC-FIX-SERVER|52=20170625-04:58:54.531|56=02f8e7cb-6a9a-4dff-8ab8-e246b8d18002|10=040|
8=FIX.4.4|9=95|35=0|34=24|49=02f8e7cb-6a9a-4dff-8ab8-e246b8d18002|52=20170625-04:59:56.721|56=BTCC-FIX-SERVER|10=040|
8=FIX.4.4|9=112|35=A|34=1|49=02f8e7cb-6a9a-4dff-8ab8-e246b8d18002|52=20170625-05:00:06.597|56=BTCC-FIX-SERVER|98=0|108=30|141=Y|10=105|
8=FIX.4.4|9=112|35=A|34=1|49=BTCC-FIX-SERVER|52=20170625-04:59:22.380|56=02f8e7cb-6a9a-4dff-8ab8-e246b8d18002|98=0|108=30|141=Y|10=106|
8=FIX.4.4|9=94|35=0|34=2|49=BTCC-FIX-SERVER|52=20170625-04:59:52.531|56=02f8e7cb-6a9a-4dff-8ab8-e246b8d18002|10=238|
8=FIX.4.4|9=94|35=0|34=2|49=02f8e7cb-6a9a-4dff-8ab8-e246b8d18002|52=20170625-05:00:37.103|56=BTCC-FIX-SERVER|10=223|
8=FIX.4.4|9=112|35=A|34=1|49=02f8e7cb-6a9a-4dff-8ab8-e246b8d18002|52=20170625-05:02:31.989|56=BTCC-FIX-SERVER|98=0|108=30|141=Y|10=110|
8=FIX.4.4|9=112|35=A|34=1|49=BTCC-FIX-SERVER|52=20170625-05:01:47.646|56=02f8e7cb-6a9a-4dff-8ab8-e246b8d18002|98=0|108=30|141=Y|10=106|
8=FIX.4.4|9=112|35=A|34=1|49=02f8e7cb-6a9a-4dff-8ab8-e246b8d18002|52=20170625-05:03:38.828|56=BTCC-FIX-SERVER|98=0|108=30|141=Y|10=110|
8=FIX.4.4|9=112|35=A|34=1|49=BTCC-FIX-SERVER|52=20170625-05:02:55.626|56=02f8e7cb-6a9a-4dff-8ab8-e246b8d18002|98=0|108=30|141=Y|10=104|
8=FIX.4.4|9=148|35=V|34=2|49=02f8e7cb-6a9a-4dff-8ab8-e246b8d18002|52=20170625-05:03:40.115|56=BTCC-FIX-SERVER|262=123|263=0|264=0|146=1|55=LTCCNY|267=2|269=0|269=1|10=099|
8=FIX.4.4|9=204|35=W|34=2|49=BTCC-FIX-SERVER|52=20170625-05:02:55.782|56=02f8e7cb-6a9a-4dff-8ab8-e246b8d18002|55=LTCCNY|268=2|269=0|270=322.02|272=20170625|273=05:02:53.000|269=1|270=322.97|272=20170625|273=05:02:53.000|10=066|
8=FIX.4.4|9=112|35=A|34=1|49=02f8e7cb-6a9a-4dff-8ab8-e246b8d18002|52=20170625-05:04:30.339|56=BTCC-FIX-SERVER|98=0|108=30|141=Y|10=100|
8=FIX.4.4|9=112|35=A|34=1|49=02f8e7cb-6a9a-4dff-8ab8-e246b8d18002|52=20170625-05:04:42.325|56=BTCC-FIX-SERVER|98=0|108=30|141=Y|10=098|
8=FIX.4.4|9=112|35=A|34=1|49=BTCC-FIX-SERVER|52=20170625-05:03:57.988|56=02f8e7cb-6a9a-4dff-8ab8-e246b8d18002|98=0|108=30|141=Y|10=118|
8=FIX.4.4|9=142|35=V|34=2|49=02f8e7cb-6a9a-4dff-8ab8-e246b8d18002|52=20170625-05:04:42.478|56=BTCC-FIX-SERVER|262=123|263=0|264=5|146=1|55=LTCCNY|267=1|269=0|10=096|
8=FIX.4.4|9=157|35=W|34=2|49=BTCC-FIX-SERVER|52=20170625-05:03:58.194|56=02f8e7cb-6a9a-4dff-8ab8-e246b8d18002|55=LTCCNY|268=1|269=0|270=322.02|272=20170625|273=05:03:57.000|10=135|
8=FIX.4.4|9=112|35=A|34=1|49=02f8e7cb-6a9a-4dff-8ab8-e246b8d18002|52=20170625-05:07:19.664|56=BTCC-FIX-SERVER|98=0|108=30|141=Y|10=111|
8=FIX.4.4|9=112|35=A|34=1|49=BTCC-FIX-SERVER|52=20170625-05:06:35.335|56=02f8e7cb-6a9a-4dff-8ab8-e246b8d18002|98=0|108=30|141=Y|10=103|
8=FIX.4.4|9=142|35=V|34=2|49=02f8e7cb-6a9a-4dff-8ab8-e246b8d18002|52=20170625-05:07:19.839|56=BTCC-FIX-SERVER|262=123|263=0|264=5|146=1|55=LTCCNY|267=1|269=0|10=104|
8=FIX.4.4|9=157|35=W|34=2|49=BTCC-FIX-SERVER|52=20170625-05:06:35.508|56=02f8e7cb-6a9a-4dff-8ab8-e246b8d18002|55=LTCCNY|268=1|269=0|270=322.02|272=20170625|273=05:06:33.000|10=129|
8=FIX.4.4|9=112|35=A|34=1|49=02f8e7cb-6a9a-4dff-8ab8-e246b8d18002|52=20170625-05:08:43.407|56=BTCC-FIX-SERVER|98=0|108=30|141=Y|10=104|
8=FIX.4.4|9=112|35=A|34=1|49=BTCC-FIX-SERVER|52=20170625-05:07:59.066|56=02f8e7cb-6a9a-4dff-8ab8-e246b8d18002|98=0|108=30|141=Y|10=111|
8=FIX.4.4|9=154|35=V|34=2|49=02f8e7cb-6a9a-4dff-8ab8-e246b8d18002|52=20170625-05:08:43.554|56=BTCC-FIX-SERVER|262=123|263=1|264=0|146=1|55=LTCCNY|267=3|269=0|269=1|269=2|10=130|
8=FIX.4.4|9=251|35=W|34=2|49=BTCC-FIX-SERVER|52=20170625-05:07:59.241|56=02f8e7cb-6a9a-4dff-8ab8-e246b8d18002|55=LTCCNY|268=3|269=0|270=322.02|272=20170625|273=05:07:58.000|269=1|270=322.89|272=20170625|273=05:07:58.000|269=2|270=322.97|272=20170625|273=05:07:58.000|10=043|
8=FIX.4.4|9=112|35=A|34=1|49=02f8e7cb-6a9a-4dff-8ab8-e246b8d18002|52=20170625-05:09:21.914|56=BTCC-FIX-SERVER|98=0|108=30|141=Y|10=104|
8=FIX.4.4|9=112|35=A|34=1|49=BTCC-FIX-SERVER|52=20170625-05:08:37.586|56=02f8e7cb-6a9a-4dff-8ab8-e246b8d18002|98=0|108=30|141=Y|10=115|
8=FIX.4.4|9=154|35=V|34=2|49=02f8e7cb-6a9a-4dff-8ab8-e246b8d18002|52=20170625-05:09:22.096|56=BTCC-FIX-SERVER|262=123|263=1|264=5|146=1|55=LTCCNY|267=3|269=0|269=1|269=2|10=134|
8=FIX.4.4|9=251|35=W|34=2|49=BTCC-FIX-SERVER|52=20170625-05:08:37.769|56=02f8e7cb-6a9a-4dff-8ab8-e246b8d18002|55=LTCCNY|268=3|269=0|270=322.02|272=20170625|273=05:08:36.000|269=1|270=322.89|272=20170625|273=05:08:36.000|269=2|270=322.97|272=20170625|273=05:08:36.000|10=046|
8=FIX.4.4|9=163|35=X|34=3|49=BTCC-FIX-SERVER|52=20170625-05:08:41.699|56=02f8e7cb-6a9a-4dff-8ab8-e246b8d18002|268=1|279=1|269=2|55=LTCCNY|270=322.02|272=20170625|273=05:08:41.000|10=158|
8=FIX.4.4|9=163|35=X|34=4|49=BTCC-FIX-SERVER|52=20170625-05:08:52.660|56=02f8e7cb-6a9a-4dff-8ab8-e246b8d18002|268=1|279=1|269=2|55=LTCCNY|270=322.89|272=20170625|273=05:08:52.000|10=166|
