8=FIX.4.4|9=112|35=A|34=1|49=02f8e7cb-6a9a-4dff-8ab8-e246b8d18002|52=20170615-16:43:38.783|56=BTCC-FIX-SERVER|98=0|108=30|141=Y|10=115|
8=FIX.4.4|9=112|35=A|34=1|49=BTCC-FIX-SERVER|52=20170615-16:43:23.623|56=02f8e7cb-6a9a-4dff-8ab8-e246b8d18002|98=0|108=30|141=Y|10=102|
8=FIX.4.4|9=154|35=V|34=2|49=02f8e7cb-6a9a-4dff-8ab8-e246b8d18002|52=20170615-16:43:41.165|56=BTCC-FIX-SERVER|262=123|263=1|264=2|146=1|55=BTCCNY|267=3|269=0|269=1|269=2|10=118|
8=FIX.4.4|9=248|35=W|34=2|49=BTCC-FIX-SERVER|52=20170615-16:43:24.745|56=02f8e7cb-6a9a-4dff-8ab8-e246b8d18002|55=BTCCNY|268=3|269=0|270=17500|272=20170615|273=16:43:21.000|269=1|270=17555|272=20170615|273=16:43:21.000|269=2|270=17500|272=20170615|273=16:43:21.000|10=125|
8=FIX.4.4|9=162|35=X|34=3|49=BTCC-FIX-SERVER|52=20170615-16:43:35.004|56=02f8e7cb-6a9a-4dff-8ab8-e246b8d18002|268=1|279=1|269=2|55=BTCCNY|270=17555|272=20170615|273=16:43:34.000|10=100|
8=FIX.4.4|9=165|35=X|34=4|49=BTCC-FIX-SERVER|52=20170615-16:43:37.116|56=02f8e7cb-6a9a-4dff-8ab8-e246b8d18002|268=1|279=1|269=1|55=BTCCNY|270=17558.87|272=20170615|273=16:43:35.000|10=014|
8=FIX.4.4|9=162|35=X|34=5|49=BTCC-FIX-SERVER|52=20170615-16:43:37.183|56=02f8e7cb-6a9a-4dff-8ab8-e246b8d18002|268=1|279=1|269=2|55=BTCCNY|270=17500|272=20170615|273=16:43:37.000|10=105|
8=FIX.4.4|9=94|35=0|34=3|49=02f8e7cb-6a9a-4dff-8ab8-e246b8d18002|52=20170615-16:44:11.781|56=BTCC-FIX-SERVER|10=237|
8=FIX.4.4|9=94|35=0|34=6|49=BTCC-FIX-SERVER|52=20170615-16:44:07.531|56=02f8e7cb-6a9a-4dff-8ab8-e246b8d18002|10=238|
8=FIX.4.4|9=94|35=0|34=4|49=02f8e7cb-6a9a-4dff-8ab8-e246b8d18002|52=20170615-16:44:42.780|56=BTCC-FIX-SERVER|10=241|
8=FIX.4.4|9=94|35=0|34=7|49=BTCC-FIX-SERVER|52=20170615-16:44:37.531|56=02f8e7cb-6a9a-4dff-8ab8-e246b8d18002|10=242|
8=FIX.4.4|9=94|35=0|34=5|49=02f8e7cb-6a9a-4dff-8ab8-e246b8d18002|52=20170615-16:45:13.778|56=BTCC-FIX-SERVER|10=248|
8=FIX.4.4|9=94|35=0|34=8|49=BTCC-FIX-SERVER|52=20170615-16:45:07.531|56=02f8e7cb-6a9a-4dff-8ab8-e246b8d18002|10=241|
8=FIX.4.4|9=94|35=0|34=6|49=02f8e7cb-6a9a-4dff-8ab8-e246b8d18002|52=20170615-16:45:43.782|56=BTCC-FIX-SERVER|10=247|
8=FIX.4.4|9=162|35=X|34=9|49=BTCC-FIX-SERVER|52=20170615-16:45:33.909|56=02f8e7cb-6a9a-4dff-8ab8-e246b8d18002|268=1|279=1|269=0|55=BTCCNY|270=17470|272=20170615|273=16:45:33.000|10=115|
8=FIX.4.4|9=163|35=X|34=10|49=BTCC-FIX-SERVER|52=20170615-16:45:33.974|56=02f8e7cb-6a9a-4dff-8ab8-e246b8d18002|268=1|279=1|269=1|55=BTCCNY|270=17500|272=20170615|273=16:45:33.000|10=153|
8=FIX.4.4|9=94|35=0|34=7|49=02f8e7cb-6a9a-4dff-8ab8-e246b8d18002|52=20170615-16:46:13.783|56=BTCC-FIX-SERVER|10=247|
8=FIX.4.4|9=95|35=0|34=11|49=BTCC-FIX-SERVER|52=20170615-16:46:04.532|56=02f8e7cb-6a9a-4dff-8ab8-e246b8d18002|10=027|
8=FIX.4.4|9=163|35=X|34=12|49=BTCC-FIX-SERVER|52=20170615-16:46:06.196|56=02f8e7cb-6a9a-4dff-8ab8-e246b8d18002|268=1|279=1|269=2|55=BTCCNY|270=17470|272=20170615|273=16:46:06.000|10=160|
8=FIX.4.4|9=163|35=X|34=13|49=BTCC-FIX-SERVER|52=20170615-16:46:22.040|56=02f8e7cb-6a9a-4dff-8ab8-e246b8d18002|268=1|279=1|269=2|55=BTCCNY|270=17500|272=20170615|273=16:46:21.000|10=138|
8=FIX.4.4|9=94|35=0|34=8|49=02f8e7cb-6a9a-4dff-8ab8-e246b8d18002|52=20170615-16:46:43.784|56=BTCC-FIX-SERVER|10=252|
8=FIX.4.4|9=112|35=A|34=1|49=02f8e7cb-6a9a-4dff-8ab8-e246b8d18002|52=20170615-16:49:35.928|56=BTCC-FIX-SERVER|98=0|108=30|141=Y|10=119|
8=FIX.4.4|9=112|35=A|34=1|49=BTCC-FIX-SERVER|52=20170615-16:49:19.291|56=02f8e7cb-6a9a-4dff-8ab8-e246b8d18002|98=0|108=30|141=Y|10=114|
8=FIX.4.4|9=154|35=V|34=2|49=02f8e7cb-6a9a-4dff-8ab8-e246b8d18002|52=20170615-16:49:36.762|56=BTCC-FIX-SERVER|262=123|263=1|264=2|146=1|55=BTCCNY|267=3|269=0|269=1|269=2|10=131|
8=FIX.4.4|9=251|35=W|34=2|49=BTCC-FIX-SERVER|52=20170615-16:49:19.442|56=02f8e7cb-6a9a-4dff-8ab8-e246b8d18002|55=BTCCNY|268=3|269=0|270=17500|272=20170615|273=16:49:18.000|269=1|270=17558.87|272=20170615|273=16:49:18.000|269=2|270=17500|272=20170615|273=16:49:18.000|10=063|
8=FIX.4.4|9=94|35=0|34=3|49=BTCC-FIX-SERVER|52=20170615-16:49:49.532|56=02f8e7cb-6a9a-4dff-8ab8-e246b8d18002|10=247|
8=FIX.4.4|9=94|35=0|34=3|49=02f8e7cb-6a9a-4dff-8ab8-e246b8d18002|52=20170615-16:50:07.067|56=BTCC-FIX-SERVER|10=236|
8=FIX.4.4|9=112|35=A|34=1|49=02f8e7cb-6a9a-4dff-8ab8-e246b8d18002|52=20170615-16:52:17.405|56=BTCC-FIX-SERVER|98=0|108=30|141=Y|10=103|
8=FIX.4.4|9=112|35=A|34=1|49=BTCC-FIX-SERVER|52=20170615-16:52:00.099|56=02f8e7cb-6a9a-4dff-8ab8-e246b8d18002|98=0|108=30|141=Y|10=104|
8=FIX.4.4|9=154|35=V|34=2|49=02f8e7cb-6a9a-4dff-8ab8-e246b8d18002|52=20170615-16:52:17.581|56=BTCC-FIX-SERVER|262=123|263=1|264=2|146=1|55=BTCCNY|267=3|269=0|269=1|269=2|10=123|
8=FIX.4.4|9=248|35=W|34=2|49=BTCC-FIX-SERVER|52=20170615-16:52:00.537|56=02f8e7cb-6a9a-4dff-8ab8-e246b8d18002|55=BTCCNY|268=3|269=0|270=17500|272=20170615|273=16:52:00.000|269=1|270=17558|272=20170615|273=16:52:00.000|269=2|270=17500|272=20170615|273=16:52:00.000|10=112|
8=FIX.4.4|9=162|35=X|34=3|49=BTCC-FIX-SERVER|52=20170615-16:52:17.161|56=02f8e7cb-6a9a-4dff-8ab8-e246b8d18002|268=1|279=1|269=1|55=BTCCNY|270=17558|272=20170615|273=16:52:16.000|10=106|
8=FIX.4.4|9=94|35=0|34=3|49=02f8e7cb-6a9a-4dff-8ab8-e246b8d18002|52=20170615-16:52:48.403|56=BTCC-FIX-SERVER|10=237|
